:1010000000D2002009A500001FCD0200DDA40000D1
:10101000DDA40000DDA40000DDA40000000000004D
:101020000000000000000000000000005DA60000BD
:10103000DDA4000000000000BDA50000DDA400004C
:101040004DA9000021F201004DA900004DA90000AA
:101050004DA900004DA900004DA900004DA90000B8
:101060004DA900004DA900004DA900004DA90000A8
:101070004DA900004DA900004DA900004DA9000098
:101080004DA900004DA900004DA900004DA9000088
:101090004DA900004DA900004DA900004DA9000078
:1010A0004DA900004DA900004DA900004DA9000068
:1010B0004DA900004DA900004DA900004DA9000058
:1010C0004DA900004DA900004DA900004DA9000048
:1010D0004DA900004DA900004DA900004DA9000038
:1010E0004DA900004DA900004DA900004DA9000028
:1010F0004DA900004DA900004DA900004DA9000018
:101100004FEA4102B2F1E04324BFB3F5001CDCF129
:10111000FE5C0DD901F0004C4FEAC0024CEA507061
:10112000B2F1004F40EB830008BF20F00100704790
:1011300011F0804F21D113F13872BCBF01F0004093
:10114000704741F480114FEA5252C2F11802C2F1C5
:10115000200C10FA0CF320FA02F018BF40F0010046
:101160004FEAC1234FEAD32303FA0CFC40EA0C00F8
:1011700023FA02F34FEA4303CCE77FEA625307D135
:1011800050EA01331EBF4FF0FE4040F4400070476C
:1011900001F0004040F0FE4040F40000704700BF06
:1011A00053B94AB9002908BF00281CBF4FF0FF31CE
:1011B0004FF0FF3000F00CB8ADF1080C6DE904CE33
:1011C00000F008F8DDF804E0DDE9022304B0704720
:1011D000704700BF2DE9F04786468C460846089EBA
:1011E000154674461946002B40F0C2808542B2FA7B
:1011F00082F245D94AB1C2F1200300FA02FC2EFA6C
:1012000003F3954043EA0C0C94404FEA154EA8B204
:10121000BCFBFEF8230C0EFB18CC08FB00F943EADC
:101220000C43994528D9EB1808F1FF3704D29945AA
:1012300002D9A8F102072B44A3EB0903A4B2B3FB24
:10124000FEFC0EFB1C330CFB00F044EA0344A042FE
:1012500014D92C190CF1FF3304D2A04202D9ACF1FD
:1012600002032C44241A43EA07401EB1D440002351
:1012700034607360BDE8F0874746DDE76346F1E719
:1012800092BB431B01214FEA154EAFB2B3FBFEFCEC
:10129000200C0EFB1C330CFB07F840EA0343984577
:1012A00062D9EB180CF1FF3004D2984502D9ACF1A9
:1012B00002002B44A3EB0803A4B2B3FBFEFC0EFB1D
:1012C0001C330CFB07F744EA0344A7424ED92C1900
:1012D0000CF1FF3304D2A74202D9ACF102032C4433
:1012E000E41B43EA0040C0E7C2F1200320FA03F107
:1012F000954090402EFA03F303434FEA154EAFB2E8
:10130000B1FBFEFC0EFB1C10190C0CFB07F841EAAC
:101310000041884504FA02F422D969180CF1FF3023
:1013200004D2884502D9ACF102002944A1EB08019E
:101330009BB2B1FBFEFC0EFB1C110CFB07F743EA52
:1013400001439F420ED9EB180CF1FF3104D29F42AA
:1013500002D9ACF102012B44DB1B41EA004192E7C8
:101360006046E3E76146F7E76046A3E76346B7E711
:10137000834206D916B9002108467BE7C6E900E09A
:10138000F9E7B3FA83F78FB9834201D3724508D8DE
:10139000BEEB020460EB030301209C461EB9002152
:1013A00068E73846FAE7C6E9004CF8E7C7F1200CD1
:1013B000BB4022FA0CF41C432EFA0CF120FA0CF379
:1013C000B84001434FEA14490EFA07F5B3FBF9F8A8
:1013D0001FFA84FE09FB18300B0C08FB0EFA43EAD7
:1013E00000439A4502FA07F240D9E31808F1FF30AA
:1013F00004D29A4502D9A8F102002344A3EB0A03C0
:1014000089B2B3FBF9F809FB183308FB0EFE41EA79
:1014100003418E452CD9611808F1FF3304D28E4563
:1014200002D9A8F10203214443EA0040A0FB02983C
:10143000A1EB0E014145CE46434602D306D14D45B0
:1014400004D2B9EB020E68EB04030138002EA6D0DB
:10145000B5EB0E0261EB030101FA0CFC22FA07F373
:101460004CEA0303F940C6E9003198E74046C5E776
:101470004346D9E710F8012B11F8013B012A28BF98
:101480009A42F7D0D01A7047034611F8012B03F89F
:10149000012B002AF9D17047034613F8012B002ACB
:1014A000FBD1181A01387047F7B5404DD5F85C31BB
:1014B000996811F0010124D101AA40F603400AF015
:1014C00015FA044600286DD1019CE3681B78ABB97E
:1014D0000BF0D2FCBFF35B8FD5F8D430BFF35B8F3A
:1014E00005F1D40203F00903BFF35B8F52E8001F3C
:1014F00042E800300028F9D1BFF35B8F204621F08D
:101500007FF901AA002141F203000AF0EFF9044635
:10151000002847D1019B264EDA68D2F80100D2F8A4
:10152000051003C6184621F06BF9214601AA41F2C5
:1015300001000AF0DBF90446A0BB0198C3685A78A1
:1015400085F870205A88A5F872201A7985F87120DC
:10155000B3F80720A5F87420B3F80530A5F8763065
:1015600021F04EF9214601AA41F202000AF0BEF92B
:101570000446B8B9019FFA68531C4132186859688B
:10158000344603C4083393422646F7D109482BF06A
:1015900085FC384621F034F995F87C305B060BD495
:1015A0006FF01204204603B0F0BD00BF0001002020
:1015B000780100208001002001AA002142F20300EE
:1015C0000AF094F904460028ECD1019BB64EDA6883
:1015D000D2F80100D2F8051003C6184621F010F920
:1015E000214601AA42F202000AF080F904460028CE
:1015F000D8D1019CE368B3F8012091B249B1D97800
:1016000039B1A5F80421DA78114606F1280031F045
:1016100093F9204621F0F4F895F87C6016F0200646
:1016200018D1022140F66D400AF004F90446002862
:1016300000F0CC8002210C302FF07DFD01230370DF
:1016400046702146324640F66D400AF04FF9044696
:101650000028A7D195F89C301F0712D501AA0021B8
:1016600042F21C000AF042F9044600289AD101987F
:10167000C368D3F80120D3F80530C5E9382321F039
:10168000BFF895F8D8309E0624D50DF102016846C2
:101690002BF025FF0446002884D1042142F22400C7
:1016A0000AF0C8F80646002800F0908004210C30AB
:1016B0002FF041FDBDF800300380BDF802304380BB
:1016C0002246314642F224000AF010F9044600286E
:1016D0007FF468AF95F8D8305C0610D501AA0021D8
:1016E00042F22A000AF002F9044600287FF45AAFB9
:1016F0000198C3685B7885F8203121F081F80821D2
:1017000042F201000AF096F8044600285ED0082153
:101710000C302FF010FD95F8D81011F0400F024654
:1017200040F2022308BF032388074CBF43F02C007C
:1017300043F00C0095F8D9308F0648BF40F04000C8
:1017400013F0090F95F8A23018BF40F4006003F0C1
:101750000603CE0748BF40F01000062B08BF40F438
:10176000C07000212BF02CFD2146002242F2010026
:101770000AF0BCF8044600287FF414AF95F87C30DA
:10178000B5F80411980624D4C9B901AA41F205009C
:101790000AF0ACF8044600287FF404AFB5F8043131
:1017A000019C4BB9E368B3F80120A5F804219A889D
:1017B0003E48114631F0C0F8204621F021F80821BA
:1017C00040F601400AF036F8044638B96FF0680474
:1017D000E8E60029F3D16FF00404E3E608210C30B9
:1017E0002FF0A9FC95F8D830D907024653BF4FF027
:1017F00000512BA1D1E900012D482BF0E1FC21463D
:10180000002240F601400AF071F8044600287FF4F7
:10181000C9AE014601AA4FF601400AF067F8044636
:1018200020BB019820F0ECFF214601AA4FF60240B0
:101830000AF05CF80446C8B90198C368B3F80130EF
:10184000A5F8C13020F0DCFF95F8C1305B070DD55D
:1018500001AA21464FF603400AF048F830B9019832
:10186000C3685B7885F8C03020F0CAFF2CF0B0F870
:10187000044600287FF496AE0CF02AFD04460028AA
:101880007FF490AEEB79002B3FF48CAE0821094831
:101890002BF0FCFB0AF0C6FB84E600BFAFF3008030
:1018A0009088000200800020D8010020080200205B
:1018B00010880002D40100202DE9F843D0E90C354E
:1018C000D0F82C805C193034A0450F46164619D844
:1018D0001D4DA3FB05011AA3D3E90023FFF760FC0C
:1018E0000346A4EB0800A0FB050123F07F4414A3EA
:1018F000D3E90023FFF754FC20F07F403C603060C8
:10190000BDE8F883DFF840900DA3D3E90023A8FBDE
:101910000901FFF745FC044605F1300008A3D3E9AF
:101920000023A0FB0901FFF73BFC24F07F4420F0DB
:101930007F403C603060BDE8F88300BFAFF30080BB
:101940008D49FD1A0700000000CA9A3B0000000004
:101950009FED0D7B124B134A1348144910B483EDCD
:10196000007B9FED0B7B82ED007B9FED0B7B104B93
:101970004FF0FF34002281ED007B04601A605DF8B7
:10198000044B13F001BD00BFFFFFFFFFFF1F00006E
:1019900000000000000000001F0000000000000028
:1019A00080020020D84B0020907800207802002090
:1019B0008878002000000000002800F05F812DE9F9
:1019C000F04FB54C94F86A2012F001058DB040F04C
:1019D000A78194F82500FF2300F0030084F8263047
:1019E0001CF0ACFF94F86A00420727D494F8292031
:1019F00094F8353004EB820204EB8303D66AD3F803
:101A0000388086B1A448314615F042FC33785B0635
:101A100005D5062110F01AFC002800F083819E48AD
:101A2000414615F035FC337813F00E0F40F0B780C7
:101A3000236A93B10C200DB0BDE8F08F2A4604F163
:101A40006B01C0F3C0001DF015F9FF2884F82600D3
:101A5000CCD028461CF0B8FFC8E712F0E7FD81465D
:101A6000002800F0718112F0EDFD8246002800F0A0
:101A7000688116F03BF80546002800F06781D0F831
:101A800088004FF6FF732B8505F11C0B002800F032
:101A90004F8105F1780105F17C0210F0E3FBB5F808
:101AA00076307E4A23F4EF6323F0070343F4887310
:101AB00043F00103A5F876301346D2F80120C5F8AB
:101AC0009B21C5F8A12113F8012B9B88A5F89F3114
:101AD000A5F8A53195F89A3102F0010262F30003EE
:101AE00062F3410385F89A3195F8393003F03F03EA
:101AF00063F07F0385F8393095F88E3023F00703C3
:101B000085F88E3095F83C3023F00703002785F8E0
:101B10003C304FF4C023C5F888312846C5E9127718
:101B2000C5F88870A5F88C706F86C5F82E7085F89A
:101B30003B702F65A5F88E71A5F8847118F07CFDB7
:101B400085F85071C5F8549116F06EFA95F89431F5
:101B500060F3020385F8943116F06CFA95F894312D
:101B600060F3C50385F8943195F8803167F341033C
:101B700085F880310121284616F0BCFE05F1D4001D
:101B800018F0E2FAC4E9189AC4F820B0C5E905775C
:101B90002F70ED611EF0F2F8002840F0C58094F837
:101BA00024300121C3F342030DF12B008DF82B30BB
:101BB00010F0F6FC0246002862D098F8011030467A
:101BC00015F028F931233649A360364BB4F8687014
:101BD000A0FB01010025C01841F107012CA3D3E9A6
:101BE0000023C4E9055525706560E560FFF7D8FA64
:101BF000206111F0FDFF00F109083FB9357805F0CB
:101C00000F05A5F10105B5FA85F56D0994F82400D5
:101C1000236965F3000010F0010584F824004BD01F
:101C2000214A0992002010600225204A204F049387
:101C30000BAE019305920321CDE9020006944346C1
:101C40000090089607972A460B9511F06FFE3146D3
:101C500012F08CFDA0B9174905914AF2D8330093D0
:101C6000CDE90300CDE901000797089606944346A5
:101C7000012203210B9511F025FE43E015F016B863
:101C8000236A002B3FF4D6AE14F0CEFFD2E600BF9D
:101C90008D49FD1A0700000048790020D77E030017
:101CA00000CA9A3B8C49FD1A3C790020916E0100D4
:101CB000813D0100A56901002B4A2C48049303F2E1
:101CC00047130694029591211360A7FB000301FBC3
:101CD0000731274B0793274B05934FF6FF73099264
:101CE000022703930BAE1EA3D3E900230B9708969C
:101CF000FFF756FA4346CDE900503A4628460321FD
:101D000011F014FE314612F031FD0028B8D194F8DC
:101D10006A3043F0010384F86A3015F0DBFC60B1EF
:101D2000002088E6122086E614F07EFF032082E67B
:101D300005F18000C5F88800ABE601201CF0E0FD4D
:101D4000EEE7484612F078FC072074E6504612F0A1
:101D50007FFC484612F070FCF6E700BFAFF300804E
:101D60008D49FD1A070000003C790020002AE78415
:101D7000813D0100916E010070B590F824308AB069
:101D8000C3F342030D46044601210DF1230016461C
:101D90008DF8233010F004FC71780246284615F0C7
:101DA00039F81F491F4AA0FB0131981841F107017A
:101DB00019A3D3E90023FFF7F3F9236998420546F5
:101DC00021D21B1A00220192174A0293174BA21A22
:101DD000A3FB02320221920900230A4409AE0991B1
:101DE00013490591CDE903330321D2B2069600933E
:101DF000184611F0FBFD314612F0B8FC38B92561E8
:101E000000200AB070BDFBD9C21A0023DBE70C200A
:101E10000AB070BDAFF300808D49FD1A07000000C5
:101E200000CA9A3B8C49FD1A487900208988888825
:101E3000813D01000000000038B5194C9DF810E00C
:101E400094F848C01CF0010523D163F3420C400113
:101E500094F83230A1874FEACE0E0EF0180E00F043
:101E6000200040EA0E0023F0380303430D4884F8B5
:101E700032309121A2FB000384F848C001FB0231FB
:101E800005A3D3E90023FFF78BF9C4E91000284626
:101E900038BD0C25284638BD8D49FD1A07000000C5
:101EA000E04B0020002AE78410B504469DF80800A6
:101EB00022844FEA411CC000A17D00F018000CF004
:101EC000200C4CEA000C0C4821F038014CEA010CC3
:101ED000A3FB0002912184F816C001FB032104A397
:101EE000D3E90023FFF75CF9606210BDAFF3008017
:101EF0008D49FD1A07000000002AE7840000000059
:101F00002DE9F047044600F1350190F8480094F8B7
:101F100032305B4DDFF88081C0F3400060F3861300
:101F20008CB084F8323011F0B7FE94F83220A38FD1
:101F30005448E46102F07902002784F832209121AC
:101F4000A3FB0002C4E90577277001FB03214AA324
:101F5000D3E90023FFF724F9651B626C4A4B6760E5
:101F6000AD08A3FB053502F10903984298BF3A4634
:101F7000C5F3470522644FF031028CBF1946014674
:101F8000A26005EB4502E760216148F82210064691
:101F900011F02EFE236A00F109074FEA450A002BD3
:101FA0004AD00DF12C09AA4408EB8A030993CDF815
:101FB00020900694A38F33484FF00008A3FB000243
:101FC000CDF80C80912101FB0321236904932F4B51
:101FD00007932F4B05934FF0020A27A3D3E9002361
:101FE000CDF82CA0FFF7DCF8104619464FF47A72B2
:101FF0000023FFF7D5F80435EDB2CDE901600321E8
:102000003B462A46CDF80080404611F08FFC4946F9
:1020100012F0ACFB60B994F8483043F0010384F847
:10202000483015F00BF908B300200CB0BDE8F0877C
:102030000C200CB0BDE8F0870DF12C09CDE90A3376
:1020400021694B460AAA032001F096F90028AAD17B
:102050000B99104808A3D3E90023A1FB0001FFF767
:102060009FF80A9B20F07F471F449CE750461CF0D6
:1020700047FCD9E7AFF300808D49FD1A0700000047
:10208000E04B0020002AE784BD86F21A813D010062
:10209000C574010000CA9A3BD879002000000000F6
:1020A0002DE9F04F05468BB08B46012002219A4660
:1020B000144620F007F9002202218146012010F089
:1020C00021F93B494FF4D472284610F0ABF8461D75
:1020D000F6B2384B009532460121002011F09EFCEB
:1020E00010F0FD0F0CD0344A3449354840F62F0328
:1020F00029F031FB404080F311884FF0030002DFEC
:10210000304BA4FB0348204627A3D3E900234146D4
:10211000FFF746F82C4B20F07F47A7FB033107223F
:10212000E01A02FB071168EB01014FF47A720023F9
:10213000FFF736F8CDE90170CDF800B008950695A7
:10214000296995F9394021480491214931EA24014E
:1021500028BF014605911F4C07944FF6FE7103916D
:10216000534632460121002011F0ACFB10F0FD0F68
:102170000CD0114A1149124840F6440329F0EBFAF9
:10218000404080F311884FF0030002DFB9F1000FE7
:1021900002D10BB0BDE8F08F0122022110460BB036
:1021A000BDE8F04F10F0AEB88D49FD1A07000000F1
:1021B000304C0020957A01007C61030040620300EE
:1021C000185C030000CA9A3B8D49FD1A71DA0100C0
:1021D00019DC01003D7A01002DE9F043C469228D2C
:1021E0004FF6FF739A428DB000F088800546204676
:1021F00018F0F4FC95F82830012B00F00F81022B29
:1022000000F00281002B00F0E18094F85071002F63
:1022100040F0FD80E68DB4F83080002E71D1AA8C9C
:1022200008F101060023CDE90A33B6B2002A70D0C6
:1022300094F93930002BC0F248810023A4F88A3188
:1022400095F82630D90740F1EF800023A4F88E31AD
:102250000DF127023146204618F02AFA743000F0BA
:102260004681B4F888312BB1B34240F20D819B1BFB
:10227000A4F88831B4F884312BB1B34240F2FB802A
:102280009B1BA4F88431258E17B9A84500F0EA807D
:102290000135ADB294F8D13013F001065AD1DDE921
:1022A0000A130A46002B40F0ED80002900F0DC8084
:1022B0001E461846228DE4690694CDE9035705327F
:1022C000A74D0290CDE90016D2B20121002005955C
:1022D00011F08CFB10F0FD0F10D012F071FA844257
:1022E0000CD0A04AA049A14840F2155329F033FA76
:1022F000404080F311884FF0030002DF0DB0BDE8CD
:10230000F083AA8C46440023CDE90A33B6B2002AF2
:102310008ED195F82630DA0797D4B4F88A31002B9D
:1023200000F08280B34240F2FA809B1BA4F88A310D
:10233000B4F88E31002B8BD09E4280F0DE809B1B48
:102340009BB20022062BA4F88E31228600F2AC80CC
:1023500001277DE794F939206FF30003002A84F800
:10236000D13077DB94F87600C0F3C00100F00700AD
:102370001DF06AFBB4F86E20B4F86C30134403F21D
:10238000D51303447A4A7B480721E3FB002110461A
:1023900071A3D3E90023FEF703FFDDE90A1320F060
:1023A0007F4220692261904235BF161A801A0020B0
:1023B00000260A46002B7FF47DAF56EA010C7FF41D
:1023C00079AF002850D019461E4673E794F88E3036
:1023D00003F01803182B7FF418AFA18DB4F88621F1
:1023E0008B1D9A42C4BF931F5B1AB4F88211CCBFF5
:1023F0009BB21346994200F08C80A4F88231A4F875
:102400008431A4F8882100E73D2784F850713946CB
:1024100020460DB0BDE8F04315F02ABF0023A4F814
:102420008831A4F88431F0E6B4F88E31002B83D1E2
:10243000628DB4F88C3140F2E24101FB02F242F2CB
:10244000107101FB0323013BB3FBF2F39BB2A4F831
:102450008E316FE794F87700012100F007001DF03E
:10246000F5FA87E73D4615E7002D4BD000261146CB
:10247000304633461EE70023A4F88431204618F086
:10248000B7F900E7304615E712F028F901460028B1
:102490003BD00023A4F88831238DC3801B23037114
:1024A000006812F0E5F8E5E694F939309342BFF69A
:1024B000CFAEB8F1000F7FF44BAFD4F878315A08A3
:1024C000DB0743D4C4F87821C2E628460AAA0BA940
:1024D00004F1D409FFF7F0F9484617F077FE18B376
:1024E000484617F073FE18B300232386A5E69DF82F
:1024F0002710204615F0BCFE00E70821204615F005
:10250000B7FEFBE6002FB1D1F8E60123A4F888312D
:10251000B0E6B4F8881100297FF477AE6FE73E216A
:10252000204615F0A5FEE9E6FF2015F059FED7E795
:102530000246D4E91E010FF0ADFE0028D4D194F874
:102540003C30580744BFA38D238676E642F0004214
:10255000C4F87821FCE600BF8D49FD1A0700000091
:10256000FD7901007C6103008C620300185C0300AC
:102570008C49FD1A00CA9A3B2DE9F04F87B0CDE98E
:102580000432BDF8442003780292BDF84820BDF81B
:102590004080BDF84C50468EB0F82E90B0F814B183
:1025A000019104460392002B00F0CB80013EB6B2AD
:1025B000A368D4F80C71721B92B2002B009209DA56
:1025C000E168626823F0004391422CBF7F18BF1876
:1025D000A360FF1A009A638D13FB02F39BB2B3FB57
:1025E000F8F218FB02F080B283421FFA82FA80F000
:1025F0009780C01A40F2E2425D4902FB00F0A0FB66
:10260000010159A3D3E90023FEF7CAFD20F07F4062
:102610000744D94494F839304D44AD1B554440F239
:10262000E246DB09E58506FB08F500F08E80226CAA
:102630000099A36CDFF838B102FB1133A3641DF0DD
:10264000EFFB814694F87401C0F342001DF0EAFBF1
:10265000059B814406FB03F305FB09F9236509F596
:102660007429444B09F23F29A3FB09394FEA9943E6
:1026700003FB0AF02364A5EB0309A36C6A08034477
:10268000963A934228BF1346C4E911230023C4F8A5
:102690007C31A0FB0B0134A3D3E90023FEF780FDBE
:1026A000049B3F1A3448A0FB0330800A06FB00F06D
:1026B0002DA3D3E90023A0FB0B01FEF771FD20F051
:1026C0007F46029BA385039BA4F88C3129462046B4
:1026D000A4F82A8018F028F8284BA18D2B44881DD7
:1026E000B3FBF5F39AB29042A4F8862102D2521AB3
:1026F000063A92B2019BA4F8822113B10023A4F8F8
:102700008E313B464A4631462046FFF7C9FC94F8D5
:10271000803143F0010384F8803107B0BDE8F08FC9
:1027200008FB1231124840F2E24389B203FB01F187
:10273000A1FB00010CA3D3E90023FEF731FD3F1AF2
:1027400067E74E445E44B6B232E7049B0848A3FBF9
:10275000000105A3D3E90023FEF722FD20F07F4608
:10276000A9460136ADE700BF8D49FD1A07000000FC
:1027700000CA9A3B83DE1B435917B7D17FC3C901F7
:102780002DE9F04F04460B68077F1668D3F800A0C8
:10279000638CD0F81E0095B015464A7CADF84C30DD
:1027A000FF2AC7F3801389460D9212908DF83F30AF
:1027B00072D198461A4612AB93E803000DF1400B14
:1027C0001090ADF84410F8090AF1710127680A91D8
:1027D0005B460C900B9715F033FC0A99002843D107
:1027E00096F89A310C9A0A9068F3410362F3000359
:1027F00086F89A311098BBF80430C6F8A101A6F803
:10280000A531DAF87130C6F89B318B88A6F89F3174
:10281000E38D94F83010A9722B81D4F82A306B60C4
:10282000D4F83A30AB6105F1180094F83E300371EA
:1028300005210FF0B5FE6B7F00F03F0060F305034C
:102840006B7794F83F30C3F30401A977A18EE98137
:10285000012803F01F0389B206D91B3303F01F03BD
:102860000B2B01D80A9A59BB0022CAF8142095F8FC
:1028700020300B9862F3000385F82030E5680126CC
:102880002146267111F0EAFE28682E71294611F0C2
:10289000EFFE15B0BDE8F08F0DF1400B10460DF1C5
:1028A0003F015A461BF0A2FD9DF83F80277F08F1AB
:1028B00002085FFA88F88DF83F8008F0010282E78D
:1028C000D9F800305A60E38E2B82EB8940F2E2485F
:1028D00008FB03F71146638E0A93304617F038FF62
:1028E00094F83F3096F874215B0963F3430286F84D
:1028F00074211DF095FA0C9096F87401C0F3420013
:102900001DF090FA0C9B184407FB00F0BA4B00F541
:10291000742000F23F20A3FB00307B08800C963B24
:102920006862AB6294F8313008FB03F3AB63238F2A
:10293000A6F88C313946304617F0F6FEAF4BB04A58
:10294000C6F890213B44B3FBF7F39AB2A6F8862170
:10295000298A881D824204DDC1F57F41FA310A448B
:1029600092B2A6F882216B68C6F87831234613F834
:102970001C2FC2F34018DA0700F104814FF4807372
:10298000A3839AF826001CF08BFA04F12B0300288D
:1029900000F0EE80626AC4F82B20228D9A800D9B95
:1029A000FF2B00F0E980BDF84C301298A4F82930D4
:1029B000C4F82500BBF80430A4F8233010989DF823
:1029C0003F30C4F81F00A377EB8963862B8AA38668
:1029D000B6F88C31E38696F87431C3F3420384F879
:1029E0003830304615F08EF8A881E08021460B98EB
:1029F000D9F8044011F032FEAB89E3801C23D4F8EF
:102A000000B02371B8F1000F40F0D18084F81C8031
:102A10002146584611F02CFE95F85B00B5F8508021
:102A2000B5F85240012100F007001DF00FF84444B2
:102A300004F2D514DFF8D481044483467148072199
:102A4000E4FB080131230024B360746068A3D3E978
:102A50000023F460FEF7A4FB20F07F4030616D6A34
:102A60000A9A7D1BD9F80C7040F2E24303FB02770F
:102A70000221224601200FF045FC504614F0C4FB11
:102A800007F2B2470246A7EB0B07A7FB0801174660
:102A900057A3D3E90023FEF783FBCDF804A0D9F8B0
:102AA00008305949009120F07F48BA1C3A3BD2B215
:102AB00020464344012110F0F3FF012800F08280FA
:102AC0009AF82430DB076AD4304615F01BF84F4BD8
:102AD000A5FB035A044646A3D3E9002328465146E2
:102AE000FEF75EFBD9F80830494A0792A3F13A098C
:102AF000484B069620F07F47A7FB0331E81A464B68
:102B0000059340F2D113089333694FF0000BCDE9E0
:102B100003B34FF0070303FB07116AEB01014FF406
:102B20007A720023FEF73CFB0534E4B2CDE9017074
:102B3000CDF800804B4622460121584610F0C2FED7
:102B400010F0FD0F0CD0354A354936484FF4E97383
:102B500028F001FE404080F311884FF0030002DFAF
:102B60000122022110460FF0CDFB15B0BDE8F08F19
:102B7000C4F82B00988012E70022C4F82520A4F89E
:102B8000292017E7254A28492648F82328F0E3FD9D
:102B9000404080F311884FF0030002DFEEE600238F
:102BA000012200931846114610F038FF8CE76B7F26
:102BB00043F040036B77281D1BF010FA4FF001081B
:102BC000E88323E711F0FCFD82453FF479AF134A17
:102BD0001649144840F2792328F0BDFD404080F3A7
:102BE00011884FF0030002DF6AE700BFAFF30080F7
:102BF0008D49FD1A0700000083DE1B437FC3C90116
:102C0000404B4C008C49FD1A35DA010000CA9A3B52
:102C100005DA01008D49FD1A71DA01002C67030005
:102C200040620300185C0300DC5E03008867030059
:102C30002DE9F04F8DB01F46BDF860300793CDE908
:102C40000501BDF868309DF85C90BDF864B0049350
:102C50000020164614F04CFD002800F0658109F0B4
:102C600001080446404611F007F80390B8F1000F40
:102C70006DD1169B03993A46404615F0E1F90028BC
:102C800040F06381236A04F11C020892002B65D096
:102C9000D4F820A0DAF8005007F0010B9AF85A0097
:102CA000C0F3C00100F007001CF0CEFEBAF85210CD
:102CB000BAF8502000F2D5130A441344CC48CD4A48
:102CC0000721E3FB00211046C7A3D3E90023FEF749
:102CD00067FA20F07F40286130461BF051FE94F8DF
:102CE00033306FF3410384F83330FF2384F83430FA
:102CF000002E00F01D81A9F10203012B40F2298171
:102D000094F84810089869F3420184F8481094F840
:102D100033106BF30001DDE9052384F833101699B5
:102D2000096861621699898821850499218600962F
:102D30000021FFF7B9F860641DF020F8002840F08A
:102D400013812046FFF7DCF80DB0BDE8F08F0621B7
:102D50000FF07CFA00288CD11220F5E711F066FC08
:102D60000990002800F0738114F0C0FE0546002889
:102D700000F06A8120300FF027FC05F11C0A0028C2
:102D800040F01D81032105F124001CF011FD079B7B
:102D9000D5F888006B854FF6FF73A5F82CB02B850E
:102DA000002800F0198105F17C0205F178010FF08F
:102DB00059FAB5F8763023F4EF6323F0070343F4B0
:102DC000887343F00103A5F8763095F88E304FF004
:102DD000000B23F0070385F88E300121C5F888B079
:102DE000A5F88CB0284615F085FDC5F82EB0A5F8DD
:102DF00032B005F134001BF09BF895F8393060F3E0
:102E00000503012185F839300DF12F001CF0D0FCAD
:102E1000049B9DF82F20A5F88C31774B85F83BB0AB
:102E2000A3FB0213DB0803EB4303A2EB830295F839
:102E30003930A98DA5F88EB103F03F0385F83930FC
:102E400095F83C30A5F884B1053223F0030385F8EA
:102E50003A20079A85F83C3040F2E24B674B0BFB77
:102E600002FB4FF4C0225B44C5F88821881DB3FBE8
:102E7000FBF39AB28242A5F8862102DD063A521A85
:102E800092B2A5F88221284617F0D6FB594628466B
:102E900017F04AFC099BC5F85431002385F85031DE
:102EA00015F0C2F895F8942160F3020285F8942198
:102EB00015F0C0F895F8942160F3C50285F89421C7
:102EC00095F88021002363F3410285F8802105F104
:102ED000D40017F039F995F89A21169907F0010BEB
:102EE0006BF3410285F89A213122AA600023169AD9
:102EF0006B60EB601268C5F8A12195F89A2189886A
:102F0000A5F8A51169F30002039985F89A210A68CA
:102F1000C5F89B218A88A5F89F21C4F820A0C5E99F
:102F200005332B70ED61B9E60C200DB0BDE8F08FD4
:102F30001CF066F900283FF4DEAE1699384632469A
:102F40001BF098FE84F83400D5E60B200DB0BDE8E8
:102F5000F08F00201BF038FD94F8333043F002036B
:102F6000C14684F83330CBE6256AEB6E63B1244A60
:102F70002449254840F21D4328F0EDFB404080F3F2
:102F800011884FF0030002DF05F1600105F15C00DC
:102F90000FF06CF9064600283AD02F68EE66D7F895
:102FA0005451002D42D0284611F046FB384614F00B
:102FB000A3FD0023032023620DB0BDE8F08F104A6B
:102FC00012491148C12328F0C6FB404080F3118804
:102FD0004FF0030002DFD5E605F18000C5F8880058
:102FE000E1E600BFAFF300808D49FD1A0700000045
:102FF00000CA9A3B8C49FD1AABAAAAAA7FC3C90191
:10300000B867030070600300185C0300745C030081
:10301000104A1149114840F21F4328F09CFB4040E0
:1030200080F311884FF0030002DFB6E7094A0A492E
:103030000A4840F2264328F08EFB404080F3118876
:103040004FF0030002DFAEE7099811F0F5FA072010
:103050007AE600BFB8670300CC610300185C030088
:103060002DE9F04F04468DB090F81C80238D406A06
:10307000ADF82C30E307C8F3C0170E461546C8F369
:1030800040180A9000F10D810023A383B37C707C6B
:1030900013F001031CBFD4F81E30C4F82B3004F128
:1030A0002B0214BF638CC4F82B30FF28938004F1EB
:1030B000250904F11F0240F0E5800023BDF82C1023
:1030C0000A98C4F82530A9F80430A777C4F81F007F
:1030D00091803368D3F80090EB8963862B8AA386AE
:1030E000B9F83030E3861CF099FE84F838002F6878
:1030F000384614F007FD0021A881E080384617F01B
:1031000027FBD6F804A02068214611F0A7FAAB8966
:10311000AAF806301C23DAF800408AF80430B8F127
:10312000000F40F0CC808AF81C805146204611F0F8
:103130009FFABB687A6895F85A00B5F80E80F56872
:10314000674C934238BF1346C0F3C00103F1090A2C
:1031500000F0070040F2E24303FB08F81CF074FCA7
:10316000002202212D1A01200FF0CCF8484614F05D
:1031700095FAA5FB044558A3D3E9002383462946C5
:103180002046FEF70DF8CDF80490B368554900913C
:1031900020F07F490BF10402A3EB0A03D2B24B44A7
:1031A0000121002010F07CFC10F0FD0F0CD04E4AE5
:1031B0004E494F4840F23D3328F0CDFA404080F36D
:1031C00011884FF0030002DF4FF0000B5B46032233
:1031D0000121CDF800B0584610F020FC384614F01C
:1031E00091FCB36806463E48A3EB0A0AA8FB00011F
:1031F00039A3D3E90023FDF7D3FF19463D4B0893CC
:103200003D4B069340F26D33079709933B69804627
:10321000CDE904B3104600234FF47A72FDF7C0FFE6
:10322000364B0722A9FB0331CDE9028002FB0911CD
:10323000E01A65EB01014FF47A720023FDF7B0FF4D
:103240000536F6B2CDE90090534632460121584684
:1032500010F054FB10F0FD0F0CD0234A23492448F2
:1032600040F26E3328F077FA404080F311884FF037
:10327000030002DF0122022110460DB0BDE8F04F2D
:103280000FF040B804F11E011BF0B0F8A37FBDF8A9
:103290002C200A98C4F825000233A377A9F804204B
:1032A00017E7114A1649124840F2BD2328F053FA95
:1032B000404080F311884FF0030002DFE4E66B7FAB
:1032C00043F040036B77281D1AF088FE4FF0010889
:1032D000E88328E7AFF300808D49FD1A070000005E
:1032E00000CA9A3BE5DB0100B867030040620300B7
:1032F000185C0300E9DB010019DC01008D49FD1AAF
:10330000DC5E0300000000000538C3B2052B0CD8BA
:1033100070B580B20D4614F0FDFB044618B190F96B
:103320003930002B03DA002070BD0020704790F880
:1033300076000F4EC0F3C00100F007001CF084FBC4
:103340000C4A00F2B5500721E0FB0621104606A307
:10335000D3E90023FDF724FF20F07F4028602046BA
:1033600070BD00BFAFF300808D49FD1A070000005B
:1033700000CA9A3B8C49FD1A2DE9F04F93B0FF2407
:103380000B930B1D0A930023CDE90E330546164619
:103390008DF837409B464FF0040A1F4699469846E1
:1033A00010AB0693564B0593564B03930FAB01930B
:1033B0000EAB00200093022310930490029033463A
:1033C0000DF13702294610F0AFFB022815D0109BF3
:1033D000CBB9FF2C26D03368BB4223D0BAF1000F03
:1033E00040D00AF1FF3AFF245FFA8AFA8DF837409D
:1033F000D6E72946002010F0E3FB109B022BF8D003
:10340000109B002BE5D0404A404941484FF4F773E8
:1034100028F0A1F9404080F311884FF0030002DF4B
:10342000FF2CD8D19DF83700FF2829D011A9FFF72C
:103430006BFF0028B4D0FF2C0E9F119B0AD0414691
:103440003846099310F0D6FB0A9B03EB0902904221
:10345000099B17D8B8469DF837403768DDF83CB06F
:1034600099469DE72B49284A29484FF4FB7328F0D9
:1034700072F9404080F311884FF0030002DFB0E79B
:10348000FF2C34D024480721A9FB000301FB09319C
:1034900019A3D3E90023FDF783FE044600B14034AD
:1034A0001E4AABF57423A3F51073934216D81A483D
:1034B0000721A8FB000301FB08310FA3D3E9002378
:1034C000FDF76EFE164BA3FB0B2304EB93440B9B03
:1034D000044400201C6013B0BDE8F08F0BF1E87BC2
:1034E0000BF5D43B08F1FF380BF5A57BDFE76FF058
:1034F000090013B0BDE8F08F00CA9A3B000000003D
:10350000F5DE0100F9DE01000468030048680300ED
:10351000185C0300506803008D49FD1ABFBDF07FA1
:1035200083DE1B43000000002DE9F043C6684768B6
:1035300073683D491A68D0F80090A7F57423A3F585
:1035400010738B4283B0804607D907F1E87707F5FF
:10355000D43709F1FF3907F5A57773681169DD895B
:10356000CDF8049006F1100301AA0220FFF704FF32
:1035700000284ED10199A1EB09031B0237D408465C
:10358000494610F037FB034628480721A3FB0002F9
:1035900001FB032122A3D3E90023FDF701FE3469D7
:1035A0000444002C346109DB40F2E24305FB03F3E1
:1035B000A3422FD2E41AA342FCD33461D8F80030DE
:1035C0001A48A3EB0903A3FB0002072101FB032117
:1035D00013A3D3E90023FDF7E3FD154BA3FB073746
:1035E000A0EB97402044306103B0BDE8F08348462B
:1035F00010F000FB03460D480721A3FB000201FB6E
:10360000032107A3D3E90023FDF7CAFD3469241A77
:10361000C7E73469002CD1D103B0BDE8F08300BF07
:1036200000CA9A3B00000000BFBDF07F8D49FD1A23
:1036300083DE1B430000000010B5334C33490023E8
:1036400004F1FF3C14F83320072A02EB820E05D860
:1036500011F83E206FF3451201F83E201CF833208C
:103660006FF300020CF833200133082BEAD1284A0B
:10367000284C002313700A7863F300020A7091F853
:10368000282063F3000281F8282091F8502063F38A
:10369000000281F8502091F8782063F3000281F84D
:1036A000782091F8A02063F3000281F8A02091F81F
:1036B000C82063F3000281F8C82091F8F02063F37A
:1036C000000281F8F02091F8182163F3000281F8DC
:1036D0001821114A9FED0A7B1370104B83ED007B7C
:1036E0000F4B236028B1BDE810400E490E482FF063
:1036F000EAB9BDE810400C482FF0F3B9AFF30080F1
:10370000FFFFFFFFFFFFFFFF19870020D885002084
:1037100083990020E88400208299002050560020E0
:10372000A0BB0D00B5EB01002056002000000000FA
:10373000F0B5C468636883B00546002B63D11EF002
:1037400007F908201EF02AF9002108461EF018F992
:103750000022252108201EF057F9454B019301A8AE
:103760001EF03AF9434940F25B601EF0E5F9237A16
:10377000C3F3420262F30613204623721CF070FD6D
:103780001BF03EFD58BB637A9B071FD127682E684C
:1037900038461CF0F7F806446A6806F10901012072
:1037A0001EF024FB1EF010FC204613F039FD811C96
:1037B0003246C9B238461CF0F3F8054670BB2046C5
:1037C0001CF07AF888B9002003B0F0BD01201BF08E
:1037D0008BF84178821C00781EF0A8FAD6E7607A50
:1037E00010F0030018BF0120F1E7234A23492448C1
:1037F00040F22C4327F0AFFF404080F311884FF098
:10380000030002DFDFE793F820309A0797D01D48C6
:1038100021461EF05BF81EF049F9D4E7164A1A4912
:10382000174840F2144327F096FF184B0721A5FBD9
:10383000030301FB05310CA3D3E90023FDF7B0FC22
:1038400013490246134827F086FF404080F3118851
:103850004FF0030002DF104821461EF037F81EF03B
:1038600025F96FF08B00AFE700CA9A3B000000001B
:10387000D6BE898E55555500FC6B0300845D030050
:10388000185C030029FB0100985C03008D49FD1AB8
:10389000AC6C0300806C030031FE010000000000EE
:1038A0002DE9F041C46894F91630002B8CB0C0F2B9
:1038B000FF80636805460E46002B40F0EE80A37D36
:1038C0006FF30003A3751EF043F808201EF066F89E
:1038D000002108461EF054F80022252108201EF081
:1038E00093F8012011F01EF80746002800F0C78069
:1038F00007F11C001EF0B2F8874B0B930BA81EF0CB
:103900006BF8864940F25B601EF016F9A07DC0F3AB
:10391000410025301CF056F8814821461DF0D6FFA5
:10392000A37D9B0603D46368002B00F0A58096203E
:103930001EF050FA00231A46194618461EF062F986
:103940001BF05EFC002838D1A37D13F0180F59D16D
:10395000D4F800802F6840461CF014F807446A68C9
:1039600007F1090100201EF041FA1EF02DFB1EF0A8
:10397000B9F9204613F0A0FE011DC9B240463A46EF
:103980001CF00EF88046002840F0998016B9636A52
:10399000002B4ED1636843B1624B0122022100200B
:1039A0009D600EF0E5FC002835D120461BF084FF19
:1039B000D0B900200CB0BDE8F081A07DC0F3C000FC
:1039C0001AF092FF07460DF12B001BF091FA79785F
:1039D0008046BA1C38781EF0A9F99DF82B00002209
:1039E00041461EF0C1FBB3E74F4A5049504840F2F0
:1039F0000B2327F0B0FE404080F311884FF0030006
:103A000002DFD6E701201AF06FFF4178821C0078B0
:103A10001EF08CF99CE7444A4649454840F206238B
:103A200027F099FE404080F311884FF0030002DF39
:103A3000BBE7414A0792414A059240F2F3120093D4
:103A40000892CDE90366CDE9016606943B4631460E
:103A500003220FF037FF10F0FD0F9BD0324A384998
:103A600033484FF4FA7327F076FE404080F3118814
:103A70004FF0030002DF8DE71EF024F960E72A4AC9
:103A800030492B484FF4C57327F065FE404080F362
:103A900011884FF0030002DF2AE7636893F82030B3
:103AA000D90705D4636893F820309A077FF507AFEC
:103AB000254821461DF00AFF1DF0F8FF79E71A4A54
:103AC00022491B4840F2E51327F045FE204B072111
:103AD000A8FB030301FB08310DA3D3E90023FDF785
:103AE0005FFB1C4902461C4827F035FE404080F32E
:103AF00011884FF0030002DF184821461DF0E6FE52
:103B00001DF0D4FF6FF08B0054E700BFAFF30080CF
:103B100000CA9A3B00000000D6BE898E555555005C
:103B2000013C0000201C0020B86C0300845D0300F1
:103B3000185C03008C5D0300A9090200490A020019
:103B4000BC5F0300486C030029FB0100985C030084
:103B50008D49FD1A046D0300806C03008508020086
:103B600038B504461CF03EFEA37DA27DC3F341039D
:103B7000013303F00303032B08BF002363F3420266
:103B800014BF03F125002520A2751BF01BFF6368FD
:103B90000BB123694BB910F02BF8C11C00201EF0AB
:103BA00099F9BDE838401EF00FBA1EF0C1F905467C
:103BB00010F01EF8C11C00201EF08CF91EF004FA53
:103BC0001EF0B6F9294610F015F80B4A03460721F6
:103BD000A0FB020201FB032105A3D3E90023FDF7AB
:103BE000DFFA23691B1A236138BD00BFAFF30080E1
:103BF00000CA9A3B000000008D49FD1A0000000039
:103C00002DE9F0478AB004461DF082FFC0B250B9DA
:103C10001BF030FFC44821461DF058FE0AB0BDE835
:103C2000F0471DF043BF1DF093FF05461EF0B2F8AC
:103C300007461EF0B9F881461EF0F0FA06461EF05F
:103C4000CFFA82461EF068F8EDB280461EF048F8C2
:103C50001BF010FF002DDDD0012010F063FE0546A3
:103C6000002800F04D8117F0FF07F6B240F0E38026
:103C7000002E40F0DA804FF0FF093A464B463146BD
:103C800020461CF0D5FF0028C4D02A7F616800239D
:103C90008DF823305FFA88F702F00F03002900F057
:103CA000EC80616891F82010880700F1E680072B0E
:103CB000B0D0A17D090740F14381002B40F0C480C2
:103CC0006B7F063B1F2BA5D8042010F02BFE00288D
:103CD000A0D01EF081F9636A074643B9238C40F2F5
:103CE000712202FB03F3B0FBF3F203FB120723681C
:103CF0001A698E4B0721A2FB030301FB023188A343
:103D0000D3E90023FDF74CFA6FF44A7C00EB0C0377
:103D1000BB42FFF47FAF1DF0D5FF484663681BF040
:103D2000CDF8E37D9907804640F1E581002800F059
:103D3000E281824601271DF019FFCDE9027A09AB25
:103D4000049305F11E0301932B7FC3F380130146F7
:103D5000074600930022012320461CF083FF3846CB
:103D60001DF082FE1DF0CAFE002840F0CA81704896
:103D700021461DF0ABFD626892F8203043F001034C
:103D800082F82030A37D43F08003A37510F0ECFD92
:103D9000172202714FF6FF72C28095F81CC082464E
:103DA0003B46CCF3401C00F11C0207F1200E1D68BD
:103DB00058689968DF68D7601033734515605060A4
:103DC000916002F11002F2D11B6813609AF81C3066
:103DD000CAF808406CF345138AF81C301EF0A8F8A6
:103DE000002ECAF81000099BCAF8143008BF4FF023
:103DF000FF098AF81990E37D13F0020303D0B8F1AC
:103E0000000318BF01239AF81A2063F300028AF80E
:103E10001A2010F0A9FDCAF80C00DAF8000051468B
:103E20000AB0BDE8F04710F0CDBD5FFA8AF01BF094
:103E3000D3F8814621E7A07D5FFA89F1C0F3C00085
:103E40001BF060F8814618E7012B40F089806A7FFB
:103E50000C2A7FF4DFAE2A7FCDF8009019460023AC
:103E60000193D20905F1240320461CF035FE0028F9
:103E70007FF42AAF2B7F03F00F03002B70D16B7FF1
:103E8000052B7FF6C7AE252B3FF6C4AEA27D02F010
:103E90002102202A09D16268002A00F0C180052B86
:103EA0007FF6B8AE252B3FF6B5AE63682BB12B7FFE
:103EB00003F00F03072B7FF4ADAE03209DF82380A2
:103EC00010F030FD054600283FF4A4AE10F04CFD84
:103ED0004FF6FF73EB8005232B71002F3CD17F2021
:103EE000AB7E2876002E08BF4FF0FF0968F3410330
:103EF000286885F81990AB76294610F063FD89E6AD
:103F00000C4A0D490D4840F2C72327F024FC4040DD
:103F100080F311884FF0030002DFA4E6AFF30080C6
:103F200000CA9A3B000000009D0802008D49FD1A5E
:103F30008D0A0200B86C0300486C0300185C030093
:103F4000B9F1FF0F8DF82490C2F380184BD0227E78
:103F500091453FF4B2AE90E71DF0CEFEC0B2BFE790
:103F6000062B8CD04521D94011F0010139D1012B0C
:103F700010D16B7F0C2B7FF44DAE2A7FCDF80090D3
:103F80000DF123030193D20905F1240320461CF00F
:103F9000A3FD08BB2B7F03F00F03042B7FF43AAE85
:103FA0006B7F063B1F2B3FF635AEA37DDB077FF50E
:103FB00031AE1DF0DBFD2B7F0278C3F38013B3EB32
:103FC000D21F7FF427AE0830062205F11E012FF024
:103FD00004F900287FF41EAE6B7F002B7FF465AFE1
:103FE00018E66B7F5BE705F11E0A09AA51464046B9
:103FF0001BF0A8F800283FF43DAFE37D03F0010378
:1040000043457FF437AF5146062204F108002FF0F4
:10401000E4F800287FF42EAF2B7F03F00F034CE66B
:10402000962007921DF0D6FE079A10461DF0A2FDBD
:10403000032010F077FC804600283FF4EBAD10F031
:1040400093FC4FF6FF73A8F80630052388F8043078
:10405000002F64D17F23002E88F8183014BF4B4600
:10406000FF2388F8193098F81A30D8F800006FF359
:10407000410388F81A30414610F0A4FC1DF076FD8B
:1040800006460322337862F3030333702B7F3278C2
:10409000C3F3801363F3C7120C2332704846737066
:1040A0001AF00CFFE27D92073DD500283BD0317815
:1040B000324641F0400102F8021B0168C6F80210C6
:1040C00083889380D5F81E30B3606B8CB381304603
:1040D0001DF0CAFC1DF012FD002835D11DF074FF43
:1040E000A37D204843F001032146A3750AB0BDE833
:1040F000F0471DF0EBBBA77D04F1190AC7F3801749
:1041000019E6194A19491A4840F2A44327F023FB3B
:10411000404080F311884FF0030002DF27E61DF0D6
:10412000EBFDC3B297E7A37D3278C3F3801363F34B
:104130008612334603F8022BD4F81920C6F8022061
:10414000B4F81D209A80BDE7074A084908484FF493
:10415000A56327F000FB404080F311884FF0030077
:1041600002DFBBE7B1080200B86C0300506C03002B
:10417000185C0300000000002DE9F041C468A2892A
:104180004FF6FF739A4282B000F0C78005461CF0DC
:104190006DFE2B89628AE08A1A4492B21044637FD2
:1041A000A28280B2411CE1825E064FF00001618272
:1041B00004F1180100F18C8003F03F000B46A17F51
:1041C000009004F11F0019F0C1FE0646D4E90B234C
:1041D0001344D4E90D0200210244E1626163A16A43
:1041E000A26394F872208B4228BF0B4612F004029F
:1041F000236377D01DF0ACFB08201DF0CFFB201D02
:104200001DF0EAFB2389A17A40F25B6043EA014199
:104210001DF092FC30461BF0D5FB214658481DF09E
:1042200055FB96201DF0D6FD94F85A2094F85B00BB
:10423000C2F3C003002102F0070200F007001DF0E6
:10424000E1FC20461CF074FE27682E6838461BF0FF
:1042500099FB06446A6806F1090100201DF0C6FDBD
:1042600080461DF085FE00201DF09CFE236B94F817
:104270005B0003F13002A36B00F00700012103EBA8
:1042800042051DF0FFFB4544054494F85B0000F037
:104290000700022824D004280CBF4FF4BC73282345
:1042A00001211D441DF0F0FB28441DF053FEA1899F
:1042B00005313246C9B238461BF072FB054698BB41
:1042C00020461BF0F9FAD0B9002002B0BDE8F08119
:1042D0000A4603F03F03E18B19F084FE064675E7BA
:1042E0001823DDE7D4E917010DF0D4FF002881D1B0
:1042F00094F8723043F0040384F872307AE7214A6C
:104300002149224840F2551327F025FA404080F316
:1043100011884FF0030002DFD6E71D4821461DF04B
:10432000D5FA1DF0C3FBCFE7164A1A49174840F2E9
:104330004B1327F010FA184B0721A5FB030301FBD1
:1043400005310DA3D3E90023FCF72AFF13490246E8
:10435000134827F000FA404080F311884FF0030023
:1043600002DF104821461DF0B1FA1DF09FFB6FF0EF
:104370008B00AAE7AFF3008000CA9A3B0000000060
:1043800089110200846D0300845D0300185C030042
:1043900029FB0100985C03008D49FD1AD86D0300CC
:1043A000806C030005FB0100F0B5C468A2894FF6DC
:1043B000FF739A4285B000F08B8005461CF056FDD5
:1043C0002B89628AE08A1A4492B21044637FA282E7
:1043D00080B2411CE1825E064FF00001618204F16F
:1043E00018015FD403F03F000B46A17F009004F159
:1043F0001F0019F0ABFD0646204603A91CF066FE1F
:10440000039B94F872101A7861F3C3021A70039A2E
:1044100094F872301178C3F3400363F38201117092
:104420001DF096FA08201DF0B9FA201D1DF0D4FAEF
:104430002389A17A40F25B6043EA01411DF07CFBD5
:1044400030461BF0BFFA039920461CF013FE2146AC
:1044500037481DF03BFA96201DF0BCFC94F85B0039
:1044600000F007001DF086FB27682E6838461BF019
:1044700089FA06446A6806F1090101201DF0B6FCBC
:104480001DF0A2FDA18905313246C9B238461BF0A4
:1044900087FA054618BB20461BF00EFA50B90020DB
:1044A00005B0F0BD0A4603F03F03E18B19F09AFD19
:1044B0000646A1E71F4A2049204840F2031327F08F
:1044C0004AF9404080F311884FF0030002DFE6E72D
:1044D0001B4821461DF0FAF91DF0E8FADFE7154AFE
:1044E00018491648F92327F036F9174B0721A5FB81
:1044F000030301FB05310CA3D3E90023FCF750FEB5
:1045000012490246124827F026F9404080F31188EC
:104510004FF0030002DF0F4821461DF0D7F91DF0D0
:10452000C5FA6FF08B00BBE700CA9A3B00000000A1
:10453000BD0F0200E46D0300845D0300185C0300FE
:1045400029FB0100985C03008D49FD1A346E0300BD
:10455000806C030005FB01002DE9F0472DED028B77
:104560009FED498B4A4E84B004464FF02003EFF391
:10457000118783F31288BFF36F8FD4F8C8508DB9B9
:10458000022104F1E0002EF0E7F9002843D10023D6
:104590008DED008B029304F1D00239463D4824F0A2
:1045A00035FCE2E7D4F8CC202B68C4F8C83095423B
:1045B00008BFC4F8CC30D4F8E03043F00203C4F8AC
:1045C000E030EB6823F0040343F00103EB606B6819
:1045D00087F31188BFF36F8F284698474FF0200369
:1045E000EFF3118983F31288BFF36F8FEB6899079C
:1045F00023F0010219D4EA60D4F8E03023F002037A
:10460000C4F8E03089F31188BFF36F8FDB05ACD4B9
:1046100024F0DCFAA9E704F1D8050022012128469C
:104620002EF0A0FB0028F8D1B1E7306823F0030397
:10463000EB600028E0D00027D0F80080BA460028C0
:10464000DAD04268954201460BD1016897B9726889
:104650003160824200D1716040F808AB23F0D2FE95
:104660003946B8F1000F0BD0D8F8002040460F466D
:104670009046E4E739607268824208BF7760EBE7F2
:104680004246F3E7AFF30080FFFFFFFFFFFFFFFFAE
:1046900058970020C3990020F8B510EE904A34F0E6
:1046A00000472DED048B10EE103AB0EE609A0DD15C
:1046B00083F480035B0013F5000F40F2098230EEB3
:1046C000098AB0EE480ABDEC048BF8BD23F0004027
:1046D000B0F1FF4F02D8B7F1FF4F08D9B3F17E5FB9
:1046E000EDD184F48004640014F5000FE5E7002B9D
:1046F00001462DDAB7F1974F0CD3B7F1FF4F2AD00F
:104700000225B4F17C5F41D1002BC0F28F80B1EE65
:10471000C08AD6E7B7F17E5F31D3FA15C2F19602AF
:1047200047FA02F505FA02F2BA423DD1B7F17E5FCF
:104730004AD1002C80F2D281B5EE400AF1EE10FA97
:1047400050D1D80FBDEC048BBDE8F84025F028BA55
:10475000B7F1FF4F3DD1B0F17E5F00F0B98108D9CC
:10476000DFED977A002CB4BFB0EE678AB0EE498ACD
:10477000A7E7002C80F2AF81B1EE498AA1E7B4F13E
:10478000804F34D0B4F17C5F5CD0002523F04042F0
:10479000B2F17E5FB0EEC08A3FD1002CBCBFB7EE55
:1047A000007A87EE088A29E0B7F17E5FC1D0002544
:1047B000B4F1804FEAD1B0F1BF4F1AD2B0F1D05F5F
:1047C00029D920EE008A7CE705F00105C5F1020534
:1047D000EEE7B7F17E5FACD0B4F1804F4FF000054B
:1047E000E9D08EE7B7EE007A87EE008A69E7002508
:1047F000E1E7B0F1FF4FB0EEC08A35D1002BBFF634
:1048000060AFA0F17E50284316D1BDEC048BBDE80B
:10481000F84025F0D5B9B0EEC08A28BB002C1EDACE
:10482000002B8FDA6B1E584258418BE7B0F1FF4FD7
:10483000B0EEC08A40F05581012D7FF442AFB1EE59
:10484000488A3EE7B0F1FF4FB0EEC08A3FF439AF7F
:10485000B0F17E5FD9D000283FF433AFD5E7012D0A
:1048600008BFB0EE408A2CE7DE0F013E55EA060293
:10487000CBD0B7F19A4F40F24081524B984208D8C2
:10488000002C0BDA0020BDEC048BBDE8F84025F0CD
:1048900077B94D4B984208D9002CF3DC0020BDECD1
:1048A000048BBDE8F84025F05BB9B7EE007A38EE2E
:1048B000478ADFED467ADFED469A3FA1D1E9000154
:1048C00068EE278AFCF71CFC07EE900AB5EE007A2A
:1048D00048EE477AB6EE007A07EEC87A68EE087AB4
:1048E000DFED3C6A27EE277AF0EE687A47EE667ACB
:1048F00068EE299A39EEA77A17EE103A23F47F630F
:1049000023F00F0307EE103A77EE699A77EEE97A13
:10491000013D24F47F643543B7EE007A24F00F04A0
:10492000BFEE008A18BFB0EE478A07EE104A67EE66
:10493000890A39EE477A07EE903A47EE270A07EEE2
:10494000104A67EE877A30EEA77A17EE101A002920
:1049500021F000431ADDB3F1864F09D9B5EEC08AC4
:10496000F1EE10FA4CBF012000208CE70120E5E0B9
:1049700036D1DFED196A37EE677A70EEA66AF4EE8B
:10498000C76AF1EE10FAE9DC86232DE0134A934260
:1049900007D9B5EEC08AF1EE10FA4CBF0120002015
:1049A0007DE71DD137EE677AB4EEE07AF1EE10FACA
:1049B000EADBEEE7AFF30080E13D55555555D53FB5
:1049C00000000000F3FF7F3F0700803F70A5EC363A
:1049D00000AAB83F3BAAB83F3CAA383300001643B0
:1049E000B3F17C5F6FD9DB157E3B4FF400001841BB
:1049F0000844C0F3C753A04A7F3B1A41024007EE68
:104A0000102AC0F3160040F40000C3F11703184148
:104A1000002977EEC77AB8BF404237EEA07ADFEDC3
:104A2000976ADFED975A9FED976A17EE103A23F4D5
:104A30007F6323F00F0307EE103A77EE677A67EE95
:104A4000266A70EEE70ADFED907A67EE277A9FED2F
:104A50008F7A40EE877AB7EE000A36EEA77A77EEC5
:104A6000666A77EEE67A67EE076A47EE277A16EE11
:104A7000A56ADFED875A46EE265A9FED866A15EE47
:104A8000A66ADFED855A46EE265AB0EE476A05EE75
:104A9000E66AF0EE006A67EE065A36EE666AC5EE22
:104AA000866A76EEE77A77EEC77A30EE670A10EE1E
:104AB000103A03EBC053B3F5000F06DA25F00AF8FD
:104AC00020EE088AFDE50020A7E700EE103AF7E7A0
:104AD000B7EE008AF5E59FED718AF2E5B0EE408A07
:104AE000EFE5B0F17E5F3FF48CAE00283FF4B7AE47
:104AF000002D3FF48AAE0225002613F0FF4F08BFB9
:104B00009FED677A674802BF68EE077A6FF0170378
:104B100017EE901A4FEAE15218BF00237F3A1A4469
:104B2000C1F31603834243F07E5106DD5E488342A3
:104B30007FF71CAF0132A1F5000100205B4B03EBB6
:104B40008003D3ED005A5A4B06EE101A75EE867AA2
:104B5000F7EE006AC6EEA74A491041F0005101F590
:104B6000802101EB405136EE657A07EE901A27EE70
:104B7000245A15EE107A1F4006EE907A06EEE77A78
:104B800077EEE57ADFED4B5A36EE676A65EE057A29
:104B900006EE667A9FED486A47EE865A9FED476AB1
:104BA00005EEA76ADFED465A46EE275A9FED456AA5
:104BB00005EEA76ADFED445A46EE275A27EE247A1F
:104BC00036EE856A67EEA77A26EE076A05EEA76AD3
:104BD00066EEA64AF0EE085A74EEA57A77EE867A6B
:104BE00017EE901A194007EE901A77EEE55A27EE65
:104BF000277A75EEE45A66EEA76A36EE656A06EE27
:104C0000057A9FED326A76EE877A17EE901A194090
:104C100007EE901A77EEE66A27EE866A37EE667A36
:104C2000DFED2B6A2B4967EEA67ADFED2B6A47EEA4
:104C3000267A01EB800191ED007A77EE877A07EE14
:104C4000102A264A02EB8002D2ED005A76EE276A3D
:104C5000B8EEC77A76EEA56A76EE876A16EE902AE7
:104C6000134006EE903A36EEC77A37EE657A37EEA5
:104C7000467A77EEC77A4BE6000080FF0072313F3C
:104C80004CBB31330EEADD358CBEBF351872313F77
:104C900055B38A38610B363BABAA2A3E00000000B0
:104CA0000000804B71C41C00D6B35D00C8720300C5
:104CB00000F0FFFF55326C3E42F1533E05A38B3EA0
:104CC000ABAAAA3EB76DDB3E9A99193F0038763FF2
:104CD000A0C39D36B87203004F38763FC072030000
:104CE000014823F091BC00BF98020020014823F046
:104CF0008BBC00BF8802002007B52EF070F84FF47F
:104D00007A72A0FB020302FB0131C00B074A40EAA2
:104D10004140106000234FF400420548CDE90023D4
:104D200024F052FA002003B05DF804FB885B0020F9
:104D3000D0200020014B187800F038BA509800209D
:104D4000044B1A78824202D01870FFF7F3BF00209C
:104D5000704700BF5098002008B52EF040F84FF47F
:104D60007A72A0FB020302FB0131114AC30B1268E5
:104D700043EA41439B1A0F4A934214DD03F0E2FCDD
:104D800020B1BDE808400120FFF7DABF0220FFF79D
:104D9000D7FF00F0B9F9002803DABDE8084000F0B9
:104DA000EFB926F0E5FC47F230529342E9DC08BD4A
:104DB000885B0020C027090008B52EF010F84FF4DA
:104DC0007A72A0FB020302FB0131C00B044A40EAE5
:104DD00041401060BDE808400020FFF7B1BF00BFB0
:104DE000885B0020014B1878704700BF5098002066
:104DF000F8B5044610B900252846F8BD0378002B05
:104E0000F9D00F4E0F4FBE420FD30D4EBE42F2D21D
:104E100030682DF0F4FB30B1356821462868FCF786
:104E200029FB0028E8D00436F0E730682DF0E7FBD6
:104E300018B135682B68A342DED00436E3E700BF23
:104E400068A9030080AA030070B5194C194D8CB0F5
:104E50000022002303A9204623F090F908B10CB0EA
:104E600070BD2B68059E5868DDE9031224F0EAFF47
:104E70000028EDDBFF238DF81830B6FA86F35B09C6
:104E800007908DF820302DF0AAFF4FF47A72A0FB26
:104E9000020302FB0131C00B40EA4140C90B8DE81F
:104EA000030006ABCDE90A010FCB00F099F9CFE77B
:104EB00038220020405C00201FB50A4C2468A468FA
:104EC00084420DD183F00103CDE90112039306481A
:104ED0000022002301A923F0FBF8044823F094FBEF
:104EE00004B010BD405C002038220020305C00205F
:104EF0001FB50023CDE90233044B8DF80C0001A847
:104F0000019324F0C6FF05B05DF804FB44430300A1
:104F10000268034B9A420CBF08300020704700BF64
:104F200044430300014B0360292070478C5B002041
:104F3000044B1A68044B9A4214BF6FF01200002011
:104F4000704700BF405C00203043030038B5044682
:104F500000282FD0194D2B68834229D053B198686F
:104F600040B183685B6803B198472B68002198685B
:104F700003F09AFD1249134B8C4214BFED2100211E
:104F80002922002024F078FF002812DBA0682C6082
:104F900070B1012103F088FD2B68986883680A4985
:104FA0001B6898472B68986883689B6803B198478B
:104FB000002038BD6FF01200FBE700BF405C00200E
:104FC000304303008C5B0020B94E000038B5054625
:104FD00048B90648FFF7BAFF041E02DB2846FFF770
:104FE00087FF204638BD6FF01504FAE73043030011
:104FF000F7B50C4615460D4901AA1E4626F040FDA0
:1050000068B1019B6BB9012C0DD1094F224639467D
:105010003046A847002802DD3878FFF7D7FF03B0F5
:10502000F0BD0020FBE76FF01500F8E744750300C2
:10503000961F00200148FFF789BF00BF30430300DF
:1050400008B50B480B492DF0FAFC0B4826F0E5FBA0
:1050500018B10948012126F0B3FB084A002342F8A1
:10506000043B0133292BFAD1BDE80840FFF7E2BF2A
:10507000305C0020494E0000183E03008C5B00208D
:10508000F8B50F4D0F4E761B07460C4605EBC105D4
:10509000C6F3C706A64201DC00200CE02A683B6884
:1050A0009A4209D13C716B6838461B68984718B121
:1050B000431E012BF0D9F8BD01340835EAE700BFE3
:1050C00020830300A08303000D4B0E4AD21A70B454
:1050D000C2F3C7020024A24203DC6FF0150070BCCB
:1050E00070471E680568AE4206D15D688D4203D1E7
:1050F000E1B270BCFFF7C4BF01340833EBE700BF77
:1051000020830300A083030037B501A822F08AFDA5
:10511000194D019C00232B60182358431838044470
:10512000019B9C4202D2002003B030BD20462DF0EE
:1051300066FAF0B1204626F039FBD0B9204626F0B9
:1051400076FBB0B9204626F05EFB014688B92046C2
:1051500003F0AAFC20F0200378330AD010F1860F68
:1051600007D00028E0DB2B68044A42F823400133D3
:105170002B60183CD4E700BF445C0020882000204E
:1051800070B5084D084E2C68013C002C02DA002353
:105190002B6070BD56F82400012103F085FC013C12
:1051A000F3E700BF445C0020882000201FB50023E7
:1051B000CDE90233044B8DF80C0001A8019324F0D3
:1051C00068FE05B05DF804FB484303000268034B2A
:1051D0009A420CBF08300020704700BF48430300CC
:1051E00084B030B589B00CAC84E80F000023019383
:1051F0000CAD084B00930FCD02AC0FC495E8030033
:1052000084E80300684624F044FE09B0BDE830405D
:1052100004B070474C4303000268034B9A420CBF32
:1052200008300020704700BF4C43030084B030B505
:105230008BB00EAC84E80F00002301930EAD084B39
:1052400000930FCD02AC0FC495E80F0084E80F0067
:10525000684624F01EFE0BB0BDE8304004B0704735
:10526000504303001FB50023CDE90233044B8DF8F2
:105270000C0001A8019324F00CFE05B05DF804FBBE
:105280005443030002460249024824F06EBE00BFA8
:10529000A8020020A843030002460249024824F065
:1052A00064BE00BF785C00209843030002460249B8
:1052B000024824F05ABE00BF605C0020884303000F
:1052C00002460249024824F050BE00BF485C00205C
:1052D0007843030070B5006904302DF06FFA074D74
:1052E000074E00242846314601342DF0ECFB052CF6
:1052F00005F13005F6D1002070BD00BFF02500207B
:105300000553000007B50B4BC01A0B4B0011584357
:1053100000238DF804008DF805304FF4A4720023AB
:1053200001A9064822F0D4FE054823F06DF903B028
:105330005DF804FBF0250020ABAAAAAA6822002091
:10534000D802002073B519484FF0FF324FF0FF33F9
:1053500022F06EFF00280DDB154E164C4FF4A472A0
:10536000002301A9304622F009FF002804DA0F4883
:1053700024F03BFF02B070BD9DF805506DB99DF85B
:10538000040001F0F9FC0028E8D0637E002BE5D092
:10539000207E657625F02DFCE0E7637E002BDDD1D5
:1053A0000123207E637625F021FCD7E7CC25002061
:1053B00068220020C8250020042A2DE9F3478046F2
:1053C00015461E4655D80469271D4FF0FF324FF091
:1053D000FF33384622F02CFF002847DB637ED8F8E5
:1053E00004A05FFA85F884F8188033BBD4E90894E8
:1053F0002DF0F5FCBAF9003013EB090944EBE37228
:105400004FF47A74A0FB040304FB0131C40B44EA9B
:1054100041444C454FEAD13191410EDB01238DF8D7
:1054200004808DF8053014484FF4A472002301A9BC
:1054300022F04EFE114823F0E7F89EB14FF40044ED
:1054400040F2E73000214FF47A720023E6FB0401BA
:10545000FBF7A6FE0B460A490246302000FB05106A
:1054600023F06EF9384624F0C0FE002002B0BDE8FB
:10547000F0876FF01500F9E768220020D8020020BD
:10548000F025002010B5044601F0E2FCF0B12948F7
:105490004FF0FF324FF0FF3322F0CAFE00282BDB23
:1054A000254C207E25F088FB01F066FC40B9607633
:1054B000207E224B00EB400003EB00102DF011FB8F
:1054C0001C4824F092FE00EAE07015E02046FFF749
:1054D000A3FE90B12046FFF79FFE037A5BB115480B
:1054E0004FF0FF324FF0FF3322F0A2FE002803DB23
:1054F000104824F07AFE002010BD204601F0CEFCBA
:105500000028F9D0204601F0C9FC0446807A002822
:10551000F2D008484FF0FF324FF0FF3322F088FE00
:105520000028E9DBD4E904230348C0E90823043058
:10553000C7E700BFCC250020C8250020F0250020AB
:1055400030B585B058B99DF82000009000240025A2
:10555000CDE9024503481DF08FF805B030BD6FF06E
:105560001200FAE7003E0300014B1878704700BFB5
:10557000549800200D4A52F82030013342F8203070
:105580000B4A0123117883400B430A490978DBB2A7
:10559000137023EA01030849084A097850780B433D
:1055A000181A537018BF0120704700BFA45C002078
:1055B000549800205298002053980020AE1F0020DD
:1055C00010B5114A52F82030002B19DD013B42F88A
:1055D00020300E4A2BB913780121814023EA0103C0
:1055E00013700B480B4B047810780B4A59781278DB
:1055F00020EA040010435870401A18BF012010BD63
:105600006FF01500FBE700BFA45C00205498002059
:1056100052980020AE1F002053980020044A012316
:1056200012788340D8B213401B1A58425841704731
:105630005498002010B5084B084A1870084B517850
:105640001C78084B1B7823EA040318435070401A57
:1056500018BF012010BD00BF53980020AE1F0020CE
:105660005298002054980020074B00221A70074BD4
:10567000074A1978074B50781B7823EA0103181A58
:10568000537018BF01207047539800205298002093
:10569000AE1F002054980020074B084A1870084B92
:1056A00051781B7823EA00030648007818435070AD
:1056B000401A18BF0120704752980020AE1F0020EA
:1056C0005498002053980020074B084900221A7074
:1056D000074B084A1B78097850780B43181A537007
:1056E00018BF0120704700BF529800205398002037
:1056F00054980020AE1F0020A0F1E003072B03D830
:105700002030C0B2FFF736BF064B062213F8011F48
:1057100019B1013AFAD10020704718700028F8D06A
:10572000F9E700BFB01F0020A0F1E003072B10B481
:1057300005D820305DF8044BC0B2FFF741BF00230D
:10574000064A194612F8014F0133A04208BF1170F2
:10575000062BF7D100205DF8044B7047B01F0020E6
:10576000A0F1E003072B03D82030C0B2FFF756BFEB
:10577000064A002312F8011F884204D00133062B89
:10578000F8D1002070470120704700BFB01F0020F3
:10579000024B00221A605A60704700BFAF1F002002
:1057A000B0F5805F10B510D20949002301EB430228
:1057B000B2F8014024B10133062BF7D1002010BD0F
:1057C000A2F801000028F6D0F8E76FF08500F6E7B0
:1057D000A11F002030B50023074C194604EB4302FB
:1057E0000133B2F80150854204BF51709170062B0D
:1057F000F4D1002030BD00BFA11F0020024B0022C9
:105800001A605A609A607047A21F0020074A00235E
:1058100002EB4301B1F80110814204D00133062BA1
:10582000F6D1002070470120704700BFA11F002063
:10583000042810D8094A52F82030013342F82030A9
:10584000074A0123117883400B43DBB21370054AEA
:105850000020537070476FF015007047905C002077
:1058600051980020971F0020042814D80B4A52F8A2
:105870002030002B0FDD013B42F82030084A2BB9C5
:1058800013780121814023EA01031370054B12783C
:105890005A70002070476FF015007047905C002030
:1058A00051980020971F0020014B58809980704725
:1058B000971F0020014B1881D9807047971F002047
:1058C000024B00221A605A601A727047981F00201B
:1058D00000487047AE1F002000487047A11F0020FD
:1058E00000487047971F00202DE9F0410B4E337898
:1058F00083B10B4CDFF82C80002542F20F77204655
:10590000414601352DF0DFF80A2D44F8207C04F1E2
:105910005804F4D100203070BDE8F081B71F00209A
:10592000402D0020EDA4020030B5C269037ED17D78
:1059300091B0044609B1032B39D0023B012B517DB4
:1059400007D8002933D1204611B0BDE8304024F0FB
:10595000A4BD21B1937D13B9204624F040FD0AADCA
:105960001822002128462DF0FFFB23798DF83830CE
:105970000023CDE907330993E36922689B68079305
:10598000D4E90401E36808930A4B0B92CDE90C01BA
:10599000C3E902011A600123049310AB13E90F005D
:1059A0008DE80F0007A895E80C0024F0C0F911B0AD
:1059B00030BD00BF000000200B4A30B50023044674
:1059C000282000FB03F18D18515C41B90FCC0FC5A5
:1059D0000FCC0FC594E8030085E8030030BD013308
:1059E000282BEED1FAE700BFE02600202DE9F8438E
:1059F000027E0346002A6ED13B4D2A6882426AD15C
:105A0000D269547D24B119B9BDE8F84324F045BDED
:105A1000107D032828D8DFE800F0020E1F6001394E
:105A2000042921D8DFE801F01E0320051E00022111
:105A300019E0032117E00139042915D801A050F815
:105A400021F000BF655A0000695A00002F5A00007B
:105A5000335A0000655A00000429EAD001F0FB0126
:105A6000012901D101211976197EA1B3D06900283D
:105A70000DDD5C6D611C0AD01C32002152F8046FF0
:105A8000A64204D001318842F8D101221A760022C0
:105A900018462A60FFF748FF2C68E4B9134EDFF878
:105AA0005080A14616F8087CAFB12B6806F8089C18
:105AB00023B14FF4A470002123F00AF9012F01D083
:105AC000022F03D141463046FFF7FEFA0134282C5D
:105AD00006F12806E6D1BDE8F8830229A7D0BFD990
:105AE00004390129BED9BFE7C45C0020E8260020A4
:105AF0005047030082B02DE9F0412F4E06A981E8FE
:105B00000C000024582202FB04F0851931588B4206
:105B10004AD1203030442CF0E4FFEB691968D5E914
:105B200004238A1843EBE17308998A42099A934146
:105B3000804603DA04212846FFF758FF582707FB61
:105B4000046701212846FFF751FFFB69DB7D53B154
:105B50003B7E032B07D1284624F069FC012328460D
:105B60003B76FFF7E1FE284624F061FC582303FB57
:105B70000463DB695A7D22B19B7D13B1284624F072
:105B80002EFC18F1770F4FF058031DBF5C4342F213
:105B90000F72331903FB046317BF32510122002235
:105BA0001A7683F8502002E001340A2CABD1BDE80C
:105BB000F041002002B07047202D002082B02DE976
:105BC000F047044608A9006881E80C0024F059F861
:105BD0003B4B1D687DB9D4E901C23A4F4FF0580ED6
:105BE00042F20F780EFB05F6F419B959414507D07A
:105BF00001350A2DF6D1BDE8F047002002B070470C
:105C0000D0F804809DF83010DDF82490DFF8B8E07B
:105C10002171C4E902C2DDE90AC0C4E904C000215F
:105C20004FF0FF3247F8069021766265C4F81C8079
:105C3000DEE902211C60D8F8103013EB020A41EBB8
:105C4000E373D44570EB03030CDBDEF800309945B9
:105C50000CD1D8F80C309A1841EBE371944570EBF5
:105C6000010103DA05212046FFF7C0FE204600218E
:105C7000FFF7BCFE582303FB0575D8F800402969DF
:105C80000C442DF0ACF84FF47A72A0FB020302FB37
:105C90000131C30B43EA4143E11A21EAE17140F2C9
:105CA000E7304FF47A72002300EBC1304914FBF760
:105CB00077FA203602460B46B81922F00DFD9AE716
:105CC000C45C0020202D0020000000202DE9F041C0
:105CD0008AB00446FFF7A0FA00286CD02046FFF7F0
:105CE0009BFA524D47680446002642F20F782B6813
:105CF0009F420CD043450AD0EB69DB7D3BB12B7E44
:105D0000032B04D102232B762846FFF70DFE013624
:105D10000A2E05F15805EAD1454D286808B900203A
:105D20002CE0C369227A197E914204D0426D01327F
:105D300004BF62684265016862689142EFD01968E9
:105D4000D0E904238A1843EBE173D4E90461B24239
:105D50008B4116DB237ADBB10123214602A88DF8A3
:105D6000003024F09EF86846FFF726FE217A286866
:105D7000C1F10301C9B2FFF739FE02200AB0BDE844
:105D8000F0810421FFF732FE2B68002BC7D0E1E73A
:105D90006068284A11780029C1D0012905D15169CC
:105DA000884202D1117E0029D6D10133282B02F17D
:105DB0002802EFD1B3E7204601F070F80028DDD0CB
:105DC000204601F06BF8837A01469BB14368E03BC3
:105DD000072B02D80378072B0CD0174BD1E904020C
:105DE000D3E9025485429441BEBFC3E902024FF099
:105DF00000441C600E4B18680028BFD04B68E03B85
:105E0000072B8CD80B78072B89D1C3695B7D13B125
:105E1000007E0028B2D002A802248DF8004024F0B1
:105E200043FF6846FFF7C8FDA7E700BF202D00200D
:105E3000C45C0020E02600200000002010B501F026
:105E40002DF808B1837AF3B9002010BD192A11D9B1
:105E5000232AF9D9A3F1E002072AF5D9DBB22D2BC9
:105E600021D1047AFFF780FB0443A307ECD4FFF7AA
:105E70007BFBE9E7037A43F002030372E4E7C9B26C
:105E8000072910D1E0E7094C2378002BDCD00188EA
:105E900043680729A3F10402D2B2D7D0232AD3D969
:105EA000E03B072BEBD900232370CDE7559800206A
:105EB00070B50D6804460E4628462349FBF7DAFA0A
:105EC00010B92072012070BD20492846FBF7D2FA94
:105ED00010B901232372F5E71D492846FBF7CAFADA
:105EE00008B90223F6E71B492846FBF7C3FA10B9A5
:105EF00073686360E6E718492846FBF7BBFA10B9F8
:105F000073682360DEE715492846FBF7B3FA10B93A
:105F10000123A373D6E712492846FBF7ABFA10B961
:105F20000123E373CEE70F492846FBF7A3FA08B92C
:105F30000223EEE70C492846FBF79CFA08B9022336
:105F4000EFE70020BFE700BF857703008F770300EE
:105F50009B770300A9770300B8770300C877030095
:105F6000D9770300EA770300FB7703002DE9F047B8
:105F7000D0F804900469D9F80830DFF84CA0236108
:105F800000256381A58109F10C07D9F80830AB42DF
:105F900012D939462046FFF78BFF6E1C804680B928
:105FA00038685146FBF766FA48B9B6B26681D9F847
:105FB000083025619B1BA3810020BDE8F087A4F871
:105FC0000E8035460C37E0E70C78030008B5034631
:105FD0000069034903632CF076FD002008BD00BF73
:105FE000B5600000F8B52DED028B0C46B1F9041038
:105FF000054631B99FED2D0A84ED000ABDEC028BF8
:10600000F8BDD4E9027657EA06004CD0A888C0193A
:1060100046F10006121A63EB0603012A73F1000031
:1060200041DB4FF47A7607EE901AA2FB062106FBBD
:106030000311E888D30B43EA414398424FEAE13128
:106040004FF000028A41B8EEE78A14DB98B16A7A11
:106050008AB107EE100A07EE903AB8EEC70AF8EEDA
:10606000E77A07EE102A87EE800AF8EE470AFEF775
:1060700013FB28EE008A2B7ADFED0D6A07EE103A4B
:10608000B8EEC77A27EE087AC7EE267A94ED007A42
:1060900077EE877ABDEEE70AB8EEC00A77EEC07AEF
:1060A000C4ED007AAAE7DFED017AEFE70000000017
:1060B00000007A442DE9F0412DED028B076B84B08E
:1060C0007E6804462CF08BFE0D4602460B46804649
:1060D00004F138013046FFF785FF2B46424604F1B4
:1060E00048013046F0EE408AFFF77CFFFDEEE87A8B
:1060F000B0EE408A17EE903AFDEEC07A1BB217EE72
:10610000902A15B2EBB1DFED2F7A3288F4EEE78AF0
:10611000F1EE10FA4CD9DFED2C7AF4EEE78AF1EECD
:1061200010FA47F6FF7158BF0B4600200021CDE959
:106130000201B5FA85F149090091384602211CF0A7
:106140009BFADDB1DFED1F7A7288B4EEE78AF1EEDB
:1061500010FA2FD9DFED1C7AB4EEE78AF1EE10FACF
:1061600047F6FF7348BF2B4600200021CDE902010E
:1061700001210091384602211CF07EFAB4F93C302E
:1061800013B9B4F94C30BBB1307AC0034FF47A7212
:10619000002300F2E7300021FBF702F802460B462D
:1061A000204604B0BDEC028BBDE8F04122F094BA69
:1061B000064BBAE7054BD7E704B0BDEC028BBDE850
:1061C000F08100BF000000C700FEFF460080FFFF17
:1061D0002DE9F043124B134C134DD3E9067E0646CE
:1061E000002002464FF0010C2B680CFA02F813EA6B
:1061F000080F0DD0E36813EB07094EEBE3734E4530
:1062000071EB0303A5BF2B6823EA080301302B6061
:106210000132052A04F12404E6D1BDE8F08300BF71
:106220009832002068480300785F002070B5094B61
:10623000094D1E7800241C702EB1284623F02CFE38
:106240000134B44201DB304670BD2035284623F0CE
:1062500020FEF5E757980020983200202DE9F04FF6
:1062600043488FB02CF03DFC424B00261E60424B51
:10627000B3F900A047F6FF739A4564D03F4F482317
:106280004FF6FF7203FB06F0C419395A914251D1FF
:106290003B49DFF8FCB00A789BF8009001320A70A5
:1062A00038491FFA8AF324223B5202FB03130830B9
:1062B000B3F908803449C845A8BFC84628EAE8723F
:1062C000520138442CF042FF4FEA4813DFF8B8C0BF
:1062D000A4F80280C6460793CE4539DB482303FB6A
:1062E000067708ADA9EB08091822002128463C6A68
:1062F0008BF800902CF038FF0AF129030993FF2353
:106300008DF83030214BE217C3E90042CDE90A4253
:106310001C4A24230AFB032A012304930EAB13E92E
:106320000F008DE80F000AF1140095E80C0023F02F
:10633000FEFC04E00136042EA4D1FFF777FF0E4ADD
:1063400047F6FF7313800FB0BDE8F04FFFF76EBF45
:10635000079B0CEB03050FCD64460FC495E80F00B7
:106360000EF1010E84E80F000CF1200CB4E700BF21
:1063700048310020785F0020801E00207831002006
:106380005698002068480300983200201000002032
:1063900057980020F8B5154B15491648164D4FF67D
:1063A000FF721A80A3F84820A3F89020A3F8D82001
:1063B0002CF089FB114B00224FF0010CB3F908E0DF
:1063C0000CFA02F71C46002107E054F8046B55F85C
:1063D0002600384345F8260001317145F5D30132D6
:1063E000052A03F12403E9D10020F8BD783100200B
:1063F0001965000048310020D45E00206848030081
:106400002DE9F8433E4B3F4E1C78D6E90027E4BB0C
:1064100002F1004301333B4335D06FF000452CF0CF
:10642000DEFC4FF47A77A0FB070307FB0131C30BB7
:1064300043EA4143AB424FEAD131A1415DDA2CF04E
:10644000CEFCA0FB070307FB0131C00B40EA414033
:10645000281A64EBD131C90341EA504140F2E733D5
:10646000C003C0184FF47A724FF0000341F10001ED
:10647000FAF796FE02460B46234822F02DF9002833
:10648000A8BFC6E90054BDE8F88300241F49DFF81F
:1064900084E06FF0004523464FF00108DEF800006D
:1064A00008FA03FC1CEA000F08D0C8684FEAE07C39
:1064B000A8427CEB0409BCBF054664460133052BAA
:1064C00001F12401EAD11249D1E90631ED1844EB7A
:1064D0000104A74208BFAA42D5D06FF000439C42F6
:1064E00008BFB5F1FF3F9AD100230022C6E900237F
:1064F0000548BDE8F8432CF0F4BA00221346BBE788
:10650000579800204031002048310020684803009F
:1065100098320020785F002038B5114CD4E9003261
:1065200013431CD02CF05BFC03460D46D4E900015C
:106530004FF47A74A3FB043204FB0522DB0B43EA1D
:10654000424383424FEAD2328A4108DBFFF740FEE2
:1065500008B9FFF783FEBDE83840FFF751BF38BDEB
:10656000403100202DE9F04F9DB00446FEF754FE67
:10657000002800F069812046FEF74EFE8146002883
:1065800000F07D81057A002D00F0A580A54DA64E76
:106590002C78D0E904A8002C45D1476824F01AFBD8
:1065A00006EB87030693A14BA14FD3E900E301213A
:1065B00001FA00F01A462646069B1B6801FA06FC03
:1065C00013EA0C0F15D03B690BB1034211D0B7F998
:1065D0000A3013EB0E0B42EBE373DA4578EB03035F
:1065E00007DB944BD3F800B04CEA0B0CC3F800C0A7
:1065F00001340136052E07F12407DDD1002C00F00F
:106600003E812B78022B36D1FFF7FAFE0026894A0D
:10661000136813F001035CD101210133052B42D132
:106620006FF0150651E050464146FFF7D1FD814B12
:10663000D9F804202F7856F822401A6814401C60BC
:106640003B463CB9022F16D1FFF7DAFE2646FFF78C
:1066500005FE3AE0661E264005D1022F0AD1FFF75B
:10666000CFFE0124D3E7022F1BD1FFF7C9FE00267E
:106670003C46CCE70124704E5A1C49460CA80CAF8E
:1066800006EB43162A7023F00CFC0FCF0FC697E8D9
:106690000F0086E80F00FFF7B3FE0226002CB6D1EC
:1066A000D5E70224E7E7106801FA03F70742B4D000
:1066B0005F4A242101FB0322B2F908102A78914293
:1066C00003D15E4A012C1380C1D030461DB0BDE815
:1066D000F08F0023ECE7FFF7C1FDD9F804300993F0
:1066E000D9F810300793564B564E1B7808900B93F1
:1066F000B0460B9B9D420CDB089B012B40F3BF80F7
:10670000494614A823F0CDFB14A823F0C2FB0226AF
:10671000DBE73788464BB6F802B0242202FB07338A
:106720004FF0000CB3F908300A93B646CDF818C004
:106730000124069B9B4513DC4836BCF1000F6FD04B
:10674000482303FB05830BF1FF325A80384B242288
:1067500002FB073393F8203003B314BB0126B4E7E0
:10676000BCF1000F11D00EF1080ABAE80F00AEF12B
:1067700018040FC49AE80F0084E80F000024069B59
:10678000013306930EF1200ED3E7DEF81430099A98
:106790009A4214BF00244FF0010CF0E70A9B9B457E
:1067A00020D114AE1822002130462CF0DDFC07F178
:1067B00029031593079B079ADB17CDE916231C4A7B
:1067C000FF238DF86030242303FB07270023049365
:1067D00016AB0FCB8DE80F0007F1140096E80C0004
:1067E00023F0A5FA002CB9D0154B1C78013CE4B27B
:1067F000A5421C7008D004EBC401482208EBC1017B
:1068000002FB05802CF0A2FC48225443002108EB37
:1068100004002CF0A9FC4FF6FF7328F804309DE724
:10682000013566E757980020D45E0020180000204C
:1068300068480300785F002098320020801E002006
:106840005698002078310020204600F027FBB0B198
:10685000204600F023FB837A8BB14368E03B072B93
:1068600002D80378072B0AD0064BD0E90412D3E9EB
:10687000000388429341BCBF034BC3E900120026CA
:1068800023E700BF100000201800002010B5094BBE
:1068900000211A465C68844205D15C7F1CB95823EC
:1068A00003FB012010BD01310A2903F15803F1D186
:1068B0000020F7E7D83200202DE9F0410B4E337865
:1068C00083B10B4CDFF82C8000254FF0FF372046BA
:1068D000414601352CF0F7F80A2D44F8247C04F1E8
:1068E0005804F4D100203070BDE8F081B81F0020BA
:1068F0000033002065AA020082B02DE9F84308A900
:1069000081E80C000068DDE90A5723F0BAF9099E16
:10691000D0F804803046FFF7B9FF0446C0B9344BC5
:1069200001461A465868013031D158235943002393
:1069300054185350002000219DF830202272C4E9E1
:10694000080101226660C4F818802275A283A3772B
:106950004FF0010904F1280684F8149030462CF019
:10696000C0F8773008BF84F81D902368D8F8042059
:1069700093423CBF013323602268D8F804309A4226
:106980000FD12A463B46204624F03BF804E0013173
:106990000A2903F15803C5D1BDE8F843002002B02D
:1069A0007047A3691B685D1947F10007C4E90857E0
:1069B0002CF015FA4FF47A72A0FB020302FB0131AE
:1069C000C30B43EA4143EC1A002CE5DD4FF40045CC
:1069D00040F2E73000214FF47A720023E4FB050116
:1069E000FAF7DEFB02460B46304621F075FED3E790
:1069F000D8320020F8B5FEF70FFC044628B3037A1E
:106A00001BB3164D0026012755F8243C5A1C1ED0F6
:106A1000626893421BD028462CF063F815F80A3CB4
:106A2000773008BF05F80B7C8BB90D4D582303FB5D
:106A300006552846D4E9042323F0E3FF2B7D23B930
:106A4000D4E90423284623F096FF0020F8BD013640
:106A50000A2E05F15805D7D1F7E700BF0033002013
:106A6000D832002030B593B0182200210CA82CF0A9
:106A70007BFB254D06AC00220CA90023284621F003
:106A80007DFB014600283DD1182220462CF06CFBEE
:106A90000C9B07932CF0A3F94FF47A72A0FB02032E
:106AA00002FB01319DF834308DF82830C00B9DF881
:106AB000443040EA4140C90B13F00102CDE908011E
:106AC00018BF0122049208AB0FCB8DE80F000EA86F
:106AD00094E80C0023F02BF9119B012BCBD9C3F3C5
